:020000040000FA
:04000000C0EF37F026
:106E6200080ED56ED58E1200070E93160F0E9512D0
:106E7200120043C001F044C002F01200F2A444EF39
:106E820037F046EF37F03FEF37F012004D6574727E
:106E92006F6E6F6D6F3A00204F46460050C078000B
:106EA200016E9EA857EF37F059EF37F052EF37F0E7
:106EB20001C0ADFF1200026E900E51EC37F002508D
:106EC20051EC37F03B5051EC37F01200000E016EDE
:106ED200012A180E016470EF37F072EF37F069EF94
:106EE20037F012002C0EAC6E900EAB6E080EB86E20
:106EF200000EB06E220EAF6E948C948E1200DBECFC
:106F020037F0D89002320132D89002320132D89052
:106F12000232013201503B6E1200000E026E67EC2B
:106F220037F0022A310E026499EF37F09BEF37F007
:106F320090EF37F01200D8900134036E0234046EE1
:106F4200031E041E0E0E035E000E045A0450D76E7A
:106F520003C0D6FFF294120001500302F3CF05F0F2
:106F6200F4CF06F001500402F35006260250030249
:106F7200F350062605C001F006C002F012008E0E84
:106F8200F66E6E0EF76E000EF86E00EE2BF010EE3F
:106F920014F00900F5CFEEFFE550E150FAE100EE02
:106FA2003FF00B0EEE6AE806FDE1000EF86E0001FE
:106FB200AAEF3EF0010EC26EC282C2B2E3EF37F018
:106FC200E5EF37F0DEEF37F0C3CF03F0060E046EC5
:106FD200D8900332042EE9EF37F00350C4CF05F006
:106FE200066AD89005360636D8900536063605105C
:106FF200016E0650026E12003CAE02EF38F004EF52
:1070020038F025EF38F0414A422A3F50415C405067
:107012004258D8A00FEF38F011EF38F019EF38F0DE
:10702200939E818E000E426E000E416E25EF38F067
:10703200140E41184210D8A421EF38F023EF38F093
:1070420025EF38F0939E819E1200076E83CF08F0E1
:10705200000E956E000E026E220E016E000E046E80
:10706200010E036E06EC3BF007C083FF000E026EBA
:10707200210E016E000E046E010E036E06EC3BF053
:10708200000E026E210E016E000E046E000E036EE3
:1070920006EC3BF008C083FF67EC37F012003CBE01
:1070A20055EF38F057EF38F068EF38F03CAC5CEF52
:1070B20038F05EEF38F068EF38F0939E819EFF0E55
:1070C200106E0F6854EC3DF03C9C7DEF38F03CAE06
:1070D2006DEF38F06FEF38F07DEF38F03CBC74EFB5
:1070E20038F076EF38F07DEF38F03DC00FF03EC05B
:1070F20010F054EC3DF03C8C1200000E026E220E99
:10710200016E000E046E000E036E2DEC3CF0000EBC
:10711200026E210E016E000E046E000E036E2DEC47
:107122003CF0000E956E8EEC37F08EEC37F08EEC64
:1071320037F08EEC37F08EEC37F0380EBAEC38F0D0
:107142008EEC37F08EEC37F0380EBAEC38F08EEC6D
:1071520037F0380EBAEC38F0380EBAEC38F0060ECA
:10716200BAEC38F00C0EBAEC38F0010EBAEC38F08A
:107172001200086E83CF07F0000E956E000E026EAD
:10718200220E016E000E046E000E036E06EC3BF042
:1071920008C083FF000E026E210E016E000E046E07
:1071A200010E036E06EC3BF0000E026E210E016E24
:1071B200000E046E000E036E06EC3BF007C083FF68
:1071C200020E0818D8B4E8EF38F0EAEF38F0F2EF20
:1071D20038F00804D8A4F0EF38F0F2EF38F0F6EF08
:1071E20038F08EEC37F0F8EF38F067EC37F0120039
:1071F200000E0E6E0ABE02EF39F000EF39F008EF12
:1072020039F0096C0A1ED8B00A2A010E0E6E0CBEA5
:107212000FEF39F00DEF39F013EF39F00B6C0C1E54
:10722200D8B00C2A0B500C10D8B41AEF39F01CEF5E
:1072320039F040EF39F0010E0D6E24EF39F0D8909D
:107242000B360C360D2A0CAE29EF39F02BEF39F044
:1072520020EF39F00B50095C0C500A58D8A034EFDB
:1072620039F036EF39F03AEF39F00B50095E0C5035
:107272000A5AD8900C320B320D2E2BEF39F00E50E9
:10728200D8B446EF39F048EF39F04CEF39F0096CD9
:107292000A1ED8B00A2A09C009F00AC00AF0120070
:1072A200000E066E04BE5AEF39F058EF39F060EF67
:1072B20039F0036C041ED8B0042A010E066E02BE19
:1072C20067EF39F065EF39F06DEF39F0016C021EAE
:1072D200D8B0022A010E061A000E086E000E076EC2
:1072E20003500410D8B478EF39F07AEF39F0A2EFF6
:1072F20039F0010E056E82EF39F0D890033604366C
:10730200052A04AE87EF39F089EF39F07EEF39F0C4
:10731200D890073608360350015C04500258D8A0B2
:1073220095EF39F097EF39F09CEF39F00350015E99
:107332000450025A0780D89004320332052E89EF96
:1073420039F00650D8B4A8EF39F0AAEF39F0AEEF11
:1073520039F0076C081ED8B0082A07C001F008C02F
:1073620002F01200000E106E0EBEBCEF39F0BAEF42
:1073720039F0C6EF39F00E1E0D1E0C1E0B6C000EFE
:107382000C220D220E22010E106E0ABECDEF39F034
:10739200CBEF39F0D7EF39F00A1E091E081E076C31
:1073A200000E082209220A22010E101A000E116E86
:1073B200000E126E000E136E000E146E0B500C10A7
:1073C2000D100E10D8B4E8EF39F0EAEF39F020EFE3
:1073D2003AF0010E0F6EF4EF39F0D8900B360C36FE
:1073E2000D360E360F2A0EAEF9EF39F0FBEF39F0FB
:1073F200EEEF39F0D89011361236133614360B50A0
:10740200075C0C5008580D5009580E500A58D8A065
:107412000DEF3AF00FEF3AF018EF3AF00B50075E2B
:107422000C50085A0D50095A0E500A5A1180D89021
:107432000E320D320C320B320F2EFBEF39F01050A0
:10744200D8B426EF3AF028EF3AF030EF3AF0141EB3
:10745200131E121E116C000E12221322142211C0CE
:1074620007F012C008F013C009F014C00AF01200AD
:1074720083CF06F081CF07F095CF08F093CF09F0C4
:107482000F0E9512000E0D6EF80E93160DC001F040
:10749200010E026E012A50EF3AF0D8900236012E08
:1074A2004EEF3AF002509312070E81120DC001F016
:1074B200010E026E012A60EF3AF0D8900236012ED8
:1074C2005EEF3AF00250FF0A8116000E0B6E000EBC
:1074D2000A6E0A4A0B2A0BBE78EF3AF00B5009E10A
:1074E200050E0A5CD8A078EF3AF07AEF3AF06AEF2C
:1074F2003AF0000E0C6E0CC001F0010E026E012A71
:1075020085EF3AF0D8900236012E83EF3AF002501E
:1075120083140009D8A490EF3AF092EF3AF0AAEF60
:107522003AF00D50040DF3500C24016E010E026E60
:10753200000E036E012AA1EF3AF0D890023603360C
:10754200012E9EEF3AF00250471203504812C4EF48
:107552003AF00D50040DF3500C24016E010E026E30
:10756200000E036E012AB9EF3AF0D89002360336C4
:10757200012EB6EF3AF0021C046E031C056E045095
:107582004716055048160C2A030E0C64CBEF3AF04E
:10759200CDEF3AF07CEF3AF00D2A020E0D64D4EFF3
:1075A2003AF0D6EF3AF045EF3AF006C083FF07C053
:1075B20081FF08C095FF09C093FF4750451807E1B6
:1075C20048504618D8A4E8EF3AF0EAEF3AF0EDEF67
:1075D2003AF04906F3EF3AF0020E496E47C045F021
:1075E20048C046F04950D8A4F9EF3AF0FBEF3AF020
:1075F20001EF3BF045C043F046C044F005EF3BF0DD
:10760200000E446E000E436E120002BE14EF3BF0F9
:10761200025007E1080E015CD8B012EF3BF014EF04
:107622003BF03EEF3BF003500410D8B41BEF3BF0AD
:107632001DEF3BF02DEF3BF001C005F0010E066E91
:10764200052A26EF3BF0D8900636052E24EF3BF0B4
:10765200065080122CEF3CF001C005F0010E066EC0
:10766200052A36EF3BF0D8900636052E34EF3BF074
:107672000650FF0A80162CEF3CF002BE4CEF3BF0A6
:10768200025007E1100E015CD8B04AEF3BF04CEF1C
:107692003BF07AEF3BF0F80E0126FF0E0222035078
:1076A2000410D8B457EF3BF059EF3BF069EF3BF0D1
:1076B20001C005F0010E066E052A62EF3BF0D8907C
:1076C2000636052E60EF3BF0065081122CEF3CF09F
:1076D20001C005F0010E066E052A72EF3BF0D8904C
:1076E2000636052E70EF3BF00650FF0A81162CEF8E
:1076F2003CF002BE88EF3BF0025007E1180E015C3D
:10770200D8B086EF3BF088EF3BF0B6EF3BF0F00EDF
:107712000126FF0E022203500410D8B493EF3BF06F
:1077220095EF3BF0A5EF3BF001C005F0010E066EB0
:10773200052A9EEF3BF0D8900636052E9CEF3BF0D3
:10774200065082122CEF3CF001C005F0010E066ECD
:10775200052AAEEF3BF0D8900636052EACEF3BF093
:107762000650FF0A82162CEF3CF002BEC4EF3BF03B
:10777200025007E1200E015CD8B0C2EF3BF0C4EF2B
:107782003BF0F2EF3BF0E80E0126FF0E022203501F
:107792000410D8B4CFEF3BF0D1EF3BF0E1EF3BF078
:1077A20001C005F0010E066E052ADAEF3BF0D89013
:1077B2000636052ED8EF3BF0065083122CEF3CF034
:1077C20001C005F0010E066E052AEAEF3BF0D890E3
:1077D2000636052EE8EF3BF00650FF0A83162CEF23
:1077E2003CF002BE00EF3CF0025007E1280E015CC3
:1077F200D8B0FEEF3BF000EF3CF02CEF3CF0E00E97
:107802000126FF0E022203500410D8B40BEF3CF005
:107812000DEF3CF01DEF3CF001C005F0010E066ECD
:10782200052A16EF3CF0D8900636052E14EF3CF0F0
:10783200065084122CEF3CF001C005F0010E066EDA
:10784200052A26EF3CF0D8900636052E24EF3CF0B0
:107852000650FF0A8416120002BE3BEF3CF00250B3
:1078620007E1080E015CD8B039EF3CF03BEF3CF089
:1078720065EF3CF003500410D8B442EF3CF044EF03
:107882003CF054EF3CF001C005F0010E066E052AF3
:107892004DEF3CF0D8900636052E4BEF3CF00650EB
:1078A200921253EF3DF001C005F0010E066E052A5B
:1078B2005DEF3CF0D8900636052E5BEF3CF00650AB
:1078C200FF0A921653EF3DF002BE73EF3CF00250F6
:1078D20007E1100E015CD8B071EF3CF073EF3CF0A1
:1078E200A1EF3CF003500410D8B47AEF3CF07CEFE7
:1078F2003CF08EEF3CF001C005F0F80E0526010EBB
:10790200066E052A87EF3CF0D8900636052E85EFE5
:107912003CF00650931253EF3DF001C005F0F80E13
:107922000526010E066E052A99EF3CF0D890063620
:10793200052E97EF3CF00650FF0A931653EF3DF0E9
:1079420002BEAFEF3CF0025007E1180E015CD8B066
:10795200ADEF3CF0AFEF3CF0DDEF3CF00350041034
:10796200D8B4B6EF3CF0B8EF3CF0CAEF3CF001C03F
:1079720005F0F00E0526010E066E052AC3EF3CF057
:10798200D8900636052EC1EF3CF00650941253EF04
:107992003DF001C005F0F00E0526010E066E052A27
:1079A200D5EF3CF0D8900636052ED3EF3CF00650CA
:1079B200FF0A941653EF3DF002BEEBEF3CF002508B
:1079C20007E1200E015CD8B0E9EF3CF0EBEF3CF0B0
:1079D20019EF3DF003500410D8B4F2EF3CF0F4EF8D
:1079E2003CF006EF3DF001C005F0E80E0526010E61
:1079F200066E052AFFEF3CF0D8900636052EFDEF05
:107A02003CF00650951253EF3DF001C005F0E80E30
:107A12000526010E066E052A11EF3DF0D8900636B6
:107A2200052E0FEF3DF00650FF0A951653EF3DF07D
:107A320002BE27EF3DF0025007E1280E015CD8B0EC
:107A420025EF3DF027EF3DF053EF3DF003500410DA
:107A5200D8B42EEF3DF030EF3DF042EF3DF001C0E3
:107A620005F0E00E0526010E066E052A3BEF3DF0FD
:107A7200D8900636052E39EF3DF00650961253EF98
:107A82003DF001C005F0E00E0526010E066E052A46
:107A92004DEF3DF0D8900636052E4BEF3DF00650E7
:107AA200FF0A9616120020EE2BF010EE18F00A0EC6
:107AB200DBCFE3FFE806FCE2010EBAEC38F0000E81
:107AC200236E180E2324D96EDA6A000EDA22DF50F2
:107AD20026EC38F095EF3DF0180E2324D96EDA6AC1
:107AE200000EDA22200EDF6EB2EF3DF0180E2324D4
:107AF200D96EDA6A000EDA22620EDF6EB2EF3DF064
:107B0200180E2324D96EDA6A000EDA22700EDF6EA6
:107B1200B2EF3DF0180E2324D96EDA6A000EDA2293
:107B22006D0EDF6EB2EF3DF02350116E126A1250ED
:107B3200000AD8B49FEF3DF0B2EF3DF01150000AB9
:107B4200D8B46DEF3DF0010AD8B477EF3DF0030AE7
:107B5200D8B481EF3DF0010AD8B48BEF3DF0B2EF1B
:107B62003DF0232A090E2364B9EF3DF0BBEF3DF04F
:107B720062EF3DF00F2806E11028D8A4C3EF3DF0D4
:107B8200C5EF3DF0E7EF3DF020EE36F010EE13F0DA
:107B9200040EDBCFE3FFE806FCE2C00EBAEC38F0DD
:107BA200000E236E130E2324D96EDA6A000EDA2237
:107BB200DF5026EC38F0232A030E2364E3EF3DF076
:107BC200E5EF3DF0D3EF3DF0A9EF3EF0C00EBAEC89
:107BD20038F010BEF8EF3DF0105007E10A0E0F5CCE
:107BE200D8B0F6EF3DF0F8EF3DF008EF3EF00FC0F1
:107BF20009F010C00AF0000E0C6E0A0E0B6EF9ECC2
:107C020038F00950300F26EC38F095EF3EF010BEF8
:107C120016EF3EF0105007E1640E0F5CD8B014EF7F
:107C22003EF016EF3EF03EEF3EF0000E046E0A0EFE
:107C3200036E0FC001F010C002F051EC39F001C028
:107C420009F002C00AF0000E0C6E0A0E0B6EF9EC7F
:107C520038F00950300F26EC38F00FC009F010C090
:107C62000AF0000E0C6E0A0E0B6EF9EC38F0095099
:107C7200300F26EC38F095EF3EF010BE4CEF3EF0A0
:107C82002D0E0F5C010E1058D8B04AEF3EF04CEFAB
:107C92003EF08CEF3EF0000E046E640E036E0FC0D9
:107CA20001F010C002F051EC39F001C009F002C03D
:107CB2000AF0000E0C6E0A0E0B6EF9EC38F0095049
:107CC200300F26EC38F0000E046E0A0E036E0FC061
:107CD20001F010C002F051EC39F001C009F002C00D
:107CE2000AF0000E0C6E0A0E0B6EF9EC38F0095019
:107CF200300F26EC38F00FC009F010C00AF0000E69
:107D02000C6E0A0E0B6EF9EC38F00950300F26ECAF
:107D120038F095EF3EF0330E26EC38F0300E26ECBC
:107D220038F0300E26EC38F0000E236E180E2324A5
:107D3200D96EDA6A000EDA22DF5026EC38F0232AF6
:107D4200030E2364A7EF3EF0A9EF3EF097EF3EF05B
:107D5200120035EC37F031EC37F073EC37F07EEC93
:107D620038F0600E076EEA0E086E000E096E000E05
:107D72000A6E3DC001F03EC002F0000E046E050E18
:107D8200036EADEC37F001C00BF002C00CF00D6ACF
:107D92000E6AB3EC39F007C03FF008C040F03DC0B6
:107DA2000FF03EC010F054EC3DF0000E286E130EA2
:107DB200026E880E016E9CEC37F0ECEF3EF080EC28
:107DC20037F0010E286E01EF3FF050EC38F0000E54
:107DD200286E01EF3FF02850246E256A2550000AD4
:107DE200D8B4F6EF3EF0E8EF3EF02450000AD8B4E3
:107DF200E0EF3EF0010AD8B4E6EF3EF0E8EF3EF0E5
:107E020039EC3AF03AEC37F001C026F002C027F024
:107E12009AEF3FF0280E5CEC37F0F8EF3FF0300EAF
:107E22005CEC37F0F8EF3FF03E0E5CEC37F0F8EF29
:107E32003FF03F0E5CEC37F0F8EF3FF0470E5CECA2
:107E420037F0F8EF3FF0490E5CEC37F0F8EF3FF017
:107E52004C0E5CEC37F0F8EF3FF0500E5CEC37F074
:107E6200F8EF3FF0510E5CEC37F0F8EF3FF03E5088
:107E720009E1020E3D5CD8A041EF3FF043EF3FF035
:107E820048EF3FF03D06D8A03E064CEF3FF0000E13
:107E92003E6E010E3D6E3C9C600E076EEA0E086E51
:107EA200000E096E000E0A6E3DC001F03EC002F0E7
:107EB200000E046E050E036EADEC37F001C00BF040
:107EC20002C00CF00D6A0E6AB3EC39F007C03FF045
:107ED20008C040F0F8EF3FF0000E2A6E000E296E47
:107EE200294A2A2A2ABE7FEF3FF02A5009E1640E6E
:107EF200295CD8A07FEF3FF081EF3FF071EF3FF0B8
:107F0200800E3C1AF8EF3FF02C0E3D5C010E3E58FD
:107F1200D8B08EEF3FF090EF3FF094EF3FF03D4A44
:107F22003E2A4CEF3FF0010E3E6E2C0E3D6E4CEFA2
:107F32003FF026C024F027C025F02550000AD8B40F
:107F4200B5EF3FF0010AD8B4DCEF3FF0030AD8B432
:107F5200E3EF3FF0060AD8B4EAEF3FF00C0AD8B4D8
:107F6200F1EF3FF0F8EF3FF02450000AD8B4F8EFF9
:107F72003FF0010AD8B438EF3FF0030AD8B429EF32
:107F82003FF0060AD8B41AEF3FF00C0AD8B40BEF50
:107F92003FF0180AD8B46DEF3FF0300AD8B42EEF94
:107FA2003FF0600AD8B41FEF3FF0C00AD8B410EF18
:107FB2003FF0F8EF3FF02450000AD8B485EF3FF0CD
:107FC200F8EF3FF02450000AD8B433EF3FF0F8EF57
:107FD2003FF02450000AD8B424EF3FF0F8EF3FF00E
:107FE2002450000AD8B415EF3FF0F8EF3FF03FEC11
:0E7FF20037F0FDEC37F0D8EF3EF000EF00F076
:020000040020DA
:08000000FFFFFFFFFFFFFFFF00
:020000040030CA
:0E000000FF027100FF8380FF0FC00FE00F4072
:00000001FF
